{
  "contractName": "Color",
  "abi": [
    {
      "inputs": [],
      "stateMutability": "nonpayable",
      "type": "constructor"
    },
    {
      "anonymous": false,
      "inputs": [
        {
          "indexed": true,
          "internalType": "address",
          "name": "owner",
          "type": "address"
        },
        {
          "indexed": true,
          "internalType": "address",
          "name": "approved",
          "type": "address"
        },
        {
          "indexed": true,
          "internalType": "uint256",
          "name": "tokenId",
          "type": "uint256"
        }
      ],
      "name": "Approval",
      "type": "event"
    },
    {
      "anonymous": false,
      "inputs": [
        {
          "indexed": true,
          "internalType": "address",
          "name": "owner",
          "type": "address"
        },
        {
          "indexed": true,
          "internalType": "address",
          "name": "operator",
          "type": "address"
        },
        {
          "indexed": false,
          "internalType": "bool",
          "name": "approved",
          "type": "bool"
        }
      ],
      "name": "ApprovalForAll",
      "type": "event"
    },
    {
      "anonymous": false,
      "inputs": [
        {
          "indexed": true,
          "internalType": "address",
          "name": "from",
          "type": "address"
        },
        {
          "indexed": true,
          "internalType": "address",
          "name": "to",
          "type": "address"
        },
        {
          "indexed": true,
          "internalType": "uint256",
          "name": "tokenId",
          "type": "uint256"
        }
      ],
      "name": "Transfer",
      "type": "event"
    },
    {
      "inputs": [
        {
          "internalType": "address",
          "name": "to",
          "type": "address"
        },
        {
          "internalType": "uint256",
          "name": "tokenId",
          "type": "uint256"
        }
      ],
      "name": "approve",
      "outputs": [],
      "stateMutability": "nonpayable",
      "type": "function"
    },
    {
      "inputs": [
        {
          "internalType": "address",
          "name": "owner",
          "type": "address"
        }
      ],
      "name": "balanceOf",
      "outputs": [
        {
          "internalType": "uint256",
          "name": "",
          "type": "uint256"
        }
      ],
      "stateMutability": "view",
      "type": "function",
      "constant": true
    },
    {
      "inputs": [
        {
          "internalType": "uint256",
          "name": "",
          "type": "uint256"
        }
      ],
      "name": "colors",
      "outputs": [
        {
          "internalType": "string",
          "name": "",
          "type": "string"
        }
      ],
      "stateMutability": "view",
      "type": "function",
      "constant": true
    },
    {
      "inputs": [
        {
          "internalType": "uint256",
          "name": "tokenId",
          "type": "uint256"
        }
      ],
      "name": "getApproved",
      "outputs": [
        {
          "internalType": "address",
          "name": "",
          "type": "address"
        }
      ],
      "stateMutability": "view",
      "type": "function",
      "constant": true
    },
    {
      "inputs": [
        {
          "internalType": "address",
          "name": "owner",
          "type": "address"
        },
        {
          "internalType": "address",
          "name": "operator",
          "type": "address"
        }
      ],
      "name": "isApprovedForAll",
      "outputs": [
        {
          "internalType": "bool",
          "name": "",
          "type": "bool"
        }
      ],
      "stateMutability": "view",
      "type": "function",
      "constant": true
    },
    {
      "inputs": [],
      "name": "name",
      "outputs": [
        {
          "internalType": "string",
          "name": "",
          "type": "string"
        }
      ],
      "stateMutability": "view",
      "type": "function",
      "constant": true
    },
    {
      "inputs": [
        {
          "internalType": "uint256",
          "name": "tokenId",
          "type": "uint256"
        }
      ],
      "name": "ownerOf",
      "outputs": [
        {
          "internalType": "address",
          "name": "",
          "type": "address"
        }
      ],
      "stateMutability": "view",
      "type": "function",
      "constant": true
    },
    {
      "inputs": [
        {
          "internalType": "address",
          "name": "from",
          "type": "address"
        },
        {
          "internalType": "address",
          "name": "to",
          "type": "address"
        },
        {
          "internalType": "uint256",
          "name": "tokenId",
          "type": "uint256"
        }
      ],
      "name": "safeTransferFrom",
      "outputs": [],
      "stateMutability": "nonpayable",
      "type": "function"
    },
    {
      "inputs": [
        {
          "internalType": "address",
          "name": "from",
          "type": "address"
        },
        {
          "internalType": "address",
          "name": "to",
          "type": "address"
        },
        {
          "internalType": "uint256",
          "name": "tokenId",
          "type": "uint256"
        },
        {
          "internalType": "bytes",
          "name": "_data",
          "type": "bytes"
        }
      ],
      "name": "safeTransferFrom",
      "outputs": [],
      "stateMutability": "nonpayable",
      "type": "function"
    },
    {
      "inputs": [
        {
          "internalType": "address",
          "name": "operator",
          "type": "address"
        },
        {
          "internalType": "bool",
          "name": "approved",
          "type": "bool"
        }
      ],
      "name": "setApprovalForAll",
      "outputs": [],
      "stateMutability": "nonpayable",
      "type": "function"
    },
    {
      "inputs": [
        {
          "internalType": "bytes4",
          "name": "interfaceId",
          "type": "bytes4"
        }
      ],
      "name": "supportsInterface",
      "outputs": [
        {
          "internalType": "bool",
          "name": "",
          "type": "bool"
        }
      ],
      "stateMutability": "view",
      "type": "function",
      "constant": true
    },
    {
      "inputs": [],
      "name": "symbol",
      "outputs": [
        {
          "internalType": "string",
          "name": "",
          "type": "string"
        }
      ],
      "stateMutability": "view",
      "type": "function",
      "constant": true
    },
    {
      "inputs": [
        {
          "internalType": "uint256",
          "name": "tokenId",
          "type": "uint256"
        }
      ],
      "name": "tokenURI",
      "outputs": [
        {
          "internalType": "string",
          "name": "",
          "type": "string"
        }
      ],
      "stateMutability": "view",
      "type": "function",
      "constant": true
    },
    {
      "inputs": [
        {
          "internalType": "address",
          "name": "from",
          "type": "address"
        },
        {
          "internalType": "address",
          "name": "to",
          "type": "address"
        },
        {
          "internalType": "uint256",
          "name": "tokenId",
          "type": "uint256"
        }
      ],
      "name": "transferFrom",
      "outputs": [],
      "stateMutability": "nonpayable",
      "type": "function"
    },
    {
      "inputs": [
        {
          "internalType": "string",
          "name": "_color",
          "type": "string"
        }
      ],
      "name": "mint",
      "outputs": [],
      "stateMutability": "nonpayable",
      "type": "function"
    },
    {
      "inputs": [],
      "name": "totalSupply",
      "outputs": [
        {
          "internalType": "uint256",
          "name": "",
          "type": "uint256"
        }
      ],
      "stateMutability": "view",
      "type": "function",
      "constant": true
    }
  ],
  "bytecode": "0x60806040523480156200001157600080fd5b506040518060400160405280600981526020017f3078467269656e647300000000000000000000000000000000000000000000008152506040518060400160405280600381526020017f3058460000000000000000000000000000000000000000000000000000000000815250816000908051906020019062000096929190620000b8565b508060019080519060200190620000af929190620000b8565b505050620001cd565b828054620000c69062000197565b90600052602060002090601f016020900481019282620000ea576000855562000136565b82601f106200010557805160ff191683800117855562000136565b8280016001018555821562000136579182015b828111156200013557825182559160200191906001019062000118565b5b50905062000145919062000149565b5090565b5b80821115620001645760008160009055506001016200014a565b5090565b7f4e487b7100000000000000000000000000000000000000000000000000000000600052602260045260246000fd5b60006002820490506001821680620001b057607f821691505b60208210811415620001c757620001c662000168565b5b50919050565b612ac080620001dd6000396000f3fe608060405234801561001057600080fd5b50600436106101005760003560e01c806370a0823111610097578063bd11f69d11610066578063bd11f69d146102ab578063c87b56dd146102db578063d85d3d271461030b578063e985e9c51461032757610100565b806370a082311461022557806395d89b4114610255578063a22cb46514610273578063b88d4fde1461028f57610100565b806318160ddd116100d357806318160ddd1461019f57806323b872dd146101bd57806342842e0e146101d95780636352211e146101f557610100565b806301ffc9a71461010557806306fdde0314610135578063081812fc14610153578063095ea7b314610183575b600080fd5b61011f600480360381019061011a91906118d6565b610357565b60405161012c919061191e565b60405180910390f35b61013d610439565b60405161014a91906119d2565b60405180910390f35b61016d60048036038101906101689190611a2a565b6104cb565b60405161017a9190611a98565b60405180910390f35b61019d60048036038101906101989190611adf565b610550565b005b6101a7610668565b6040516101b49190611b2e565b60405180910390f35b6101d760048036038101906101d29190611b49565b610675565b005b6101f360048036038101906101ee9190611b49565b6106d5565b005b61020f600480360381019061020a9190611a2a565b6106f5565b60405161021c9190611a98565b60405180910390f35b61023f600480360381019061023a9190611b9c565b6107a7565b60405161024c9190611b2e565b60405180910390f35b61025d61085f565b60405161026a91906119d2565b60405180910390f35b61028d60048036038101906102889190611bf5565b6108f1565b005b6102a960048036038101906102a49190611d6a565b610907565b005b6102c560048036038101906102c09190611a2a565b610969565b6040516102d291906119d2565b60405180910390f35b6102f560048036038101906102f09190611a2a565b610a15565b60405161030291906119d2565b60405180910390f35b61032560048036038101906103209190611e8e565b610abc565b005b610341600480360381019061033c9190611ed7565b610bb3565b60405161034e919061191e565b60405180910390f35b60007f80ac58cd000000000000000000000000000000000000000000000000000000007bffffffffffffffffffffffffffffffffffffffffffffffffffffffff1916827bffffffffffffffffffffffffffffffffffffffffffffffffffffffff1916148061042257507f5b5e139f000000000000000000000000000000000000000000000000000000007bffffffffffffffffffffffffffffffffffffffffffffffffffffffff1916827bffffffffffffffffffffffffffffffffffffffffffffffffffffffff1916145b80610432575061043182610c47565b5b9050919050565b60606000805461044890611f46565b80601f016020809104026020016040519081016040528092919081815260200182805461047490611f46565b80156104c15780601f10610496576101008083540402835291602001916104c1565b820191906000526020600020905b8154815290600101906020018083116104a457829003601f168201915b5050505050905090565b60006104d682610cb1565b610515576040517f08c379a000000000000000000000000000000000000000000000000000000000815260040161050c90611fea565b60405180910390fd5b6004600083815260200190815260200160002060009054906101000a900473ffffffffffffffffffffffffffffffffffffffff169050919050565b600061055b826106f5565b90508073ffffffffffffffffffffffffffffffffffffffff168373ffffffffffffffffffffffffffffffffffffffff1614156105cc576040517f08c379a00000000000000000000000000000000000000000000000000000000081526004016105c39061207c565b60405180910390fd5b8073ffffffffffffffffffffffffffffffffffffffff166105eb610d1d565b73ffffffffffffffffffffffffffffffffffffffff16148061061a575061061981610614610d1d565b610bb3565b5b610659576040517f08c379a00000000000000000000000000000000000000000000000000000000081526004016106509061210e565b60405180910390fd5b6106638383610d25565b505050565b6000600680549050905090565b610686610680610d1d565b82610dde565b6106c5576040517f08c379a00000000000000000000000000000000000000000000000000000000081526004016106bc906121a0565b60405180910390fd5b6106d0838383610ebc565b505050565b6106f083838360405180602001604052806000815250610907565b505050565b6000806002600084815260200190815260200160002060009054906101000a900473ffffffffffffffffffffffffffffffffffffffff169050600073ffffffffffffffffffffffffffffffffffffffff168173ffffffffffffffffffffffffffffffffffffffff16141561079e576040517f08c379a000000000000000000000000000000000000000000000000000000000815260040161079590612232565b60405180910390fd5b80915050919050565b60008073ffffffffffffffffffffffffffffffffffffffff168273ffffffffffffffffffffffffffffffffffffffff161415610818576040517f08c379a000000000000000000000000000000000000000000000000000000000815260040161080f906122c4565b60405180910390fd5b600360008373ffffffffffffffffffffffffffffffffffffffff1673ffffffffffffffffffffffffffffffffffffffff168152602001908152602001600020549050919050565b60606001805461086e90611f46565b80601f016020809104026020016040519081016040528092919081815260200182805461089a90611f46565b80156108e75780601f106108bc576101008083540402835291602001916108e7565b820191906000526020600020905b8154815290600101906020018083116108ca57829003601f168201915b5050505050905090565b6109036108fc610d1d565b8383611118565b5050565b610918610912610d1d565b83610dde565b610957576040517f08c379a000000000000000000000000000000000000000000000000000000000815260040161094e906121a0565b60405180910390fd5b61096384848484611285565b50505050565b6006818154811061097957600080fd5b90600052602060002001600091509050805461099490611f46565b80601f01602080910402602001604051908101604052809291908181526020018280546109c090611f46565b8015610a0d5780601f106109e257610100808354040283529160200191610a0d565b820191906000526020600020905b8154815290600101906020018083116109f057829003601f168201915b505050505081565b6060610a2082610cb1565b610a5f576040517f08c379a0000000000000000000000000000000000000000000000000000000008152600401610a5690612356565b60405180910390fd5b6000610a696112e1565b90506000815111610a895760405180602001604052806000815250610ab4565b80610a93846112f8565b604051602001610aa49291906123b2565b6040516020818303038152906040525b915050919050565b600781604051610acc91906123d6565b908152602001604051809103902060009054906101000a900460ff1615610b28576040517f08c379a0000000000000000000000000000000000000000000000000000000008152600401610b1f90612439565b60405180910390fd5b600681908060018154018082558091505060019003906000526020600020016000909190919091509080519060200190610b639291906117c7565b5060006006805490509050610b783382611459565b6001600783604051610b8a91906123d6565b908152602001604051809103902060006101000a81548160ff0219169083151502179055505050565b6000600560008473ffffffffffffffffffffffffffffffffffffffff1673ffffffffffffffffffffffffffffffffffffffff16815260200190815260200160002060008373ffffffffffffffffffffffffffffffffffffffff1673ffffffffffffffffffffffffffffffffffffffff16815260200190815260200160002060009054906101000a900460ff16905092915050565b60007f01ffc9a7000000000000000000000000000000000000000000000000000000007bffffffffffffffffffffffffffffffffffffffffffffffffffffffff1916827bffffffffffffffffffffffffffffffffffffffffffffffffffffffff1916149050919050565b60008073ffffffffffffffffffffffffffffffffffffffff166002600084815260200190815260200160002060009054906101000a900473ffffffffffffffffffffffffffffffffffffffff1673ffffffffffffffffffffffffffffffffffffffff1614159050919050565b600033905090565b816004600083815260200190815260200160002060006101000a81548173ffffffffffffffffffffffffffffffffffffffff021916908373ffffffffffffffffffffffffffffffffffffffff160217905550808273ffffffffffffffffffffffffffffffffffffffff16610d98836106f5565b73ffffffffffffffffffffffffffffffffffffffff167f8c5be1e5ebec7d5bd14f71427d1e84f3dd0314c0f7b2291e5b200ac8c7c3b92560405160405180910390a45050565b6000610de982610cb1565b610e28576040517f08c379a0000000000000000000000000000000000000000000000000000000008152600401610e1f906124cb565b60405180910390fd5b6000610e33836106f5565b90508073ffffffffffffffffffffffffffffffffffffffff168473ffffffffffffffffffffffffffffffffffffffff161480610ea257508373ffffffffffffffffffffffffffffffffffffffff16610e8a846104cb565b73ffffffffffffffffffffffffffffffffffffffff16145b80610eb35750610eb28185610bb3565b5b91505092915050565b8273ffffffffffffffffffffffffffffffffffffffff16610edc826106f5565b73ffffffffffffffffffffffffffffffffffffffff1614610f32576040517f08c379a0000000000000000000000000000000000000000000000000000000008152600401610f299061255d565b60405180910390fd5b600073ffffffffffffffffffffffffffffffffffffffff168273ffffffffffffffffffffffffffffffffffffffff161415610fa2576040517f08c379a0000000000000000000000000000000000000000000000000000000008152600401610f99906125ef565b60405180910390fd5b610fad838383611627565b610fb8600082610d25565b6001600360008573ffffffffffffffffffffffffffffffffffffffff1673ffffffffffffffffffffffffffffffffffffffff1681526020019081526020016000206000828254611008919061263e565b925050819055506001600360008473ffffffffffffffffffffffffffffffffffffffff1673ffffffffffffffffffffffffffffffffffffffff168152602001908152602001600020600082825461105f9190612672565b92505081905550816002600083815260200190815260200160002060006101000a81548173ffffffffffffffffffffffffffffffffffffffff021916908373ffffffffffffffffffffffffffffffffffffffff160217905550808273ffffffffffffffffffffffffffffffffffffffff168473ffffffffffffffffffffffffffffffffffffffff167fddf252ad1be2c89b69c2b068fc378daa952ba7f163c4a11628f55a4df523b3ef60405160405180910390a4505050565b8173ffffffffffffffffffffffffffffffffffffffff168373ffffffffffffffffffffffffffffffffffffffff161415611187576040517f08c379a000000000000000000000000000000000000000000000000000000000815260040161117e90612714565b60405180910390fd5b80600560008573ffffffffffffffffffffffffffffffffffffffff1673ffffffffffffffffffffffffffffffffffffffff16815260200190815260200160002060008473ffffffffffffffffffffffffffffffffffffffff1673ffffffffffffffffffffffffffffffffffffffff16815260200190815260200160002060006101000a81548160ff0219169083151502179055508173ffffffffffffffffffffffffffffffffffffffff168373ffffffffffffffffffffffffffffffffffffffff167f17307eab39ab6107e8899845ad3d59bd9653f200f220920489ca2b5937696c3183604051611278919061191e565b60405180910390a3505050565b611290848484610ebc565b61129c8484848461162c565b6112db576040517f08c379a00000000000000000000000000000000000000000000000000000000081526004016112d2906127a6565b60405180910390fd5b50505050565b606060405180602001604052806000815250905090565b60606000821415611340576040518060400160405280600181526020017f30000000000000000000000000000000000000000000000000000000000000008152509050611454565b600082905060005b6000821461137257808061135b906127c6565b915050600a8261136b919061283e565b9150611348565b60008167ffffffffffffffff81111561138e5761138d611c3f565b5b6040519080825280601f01601f1916602001820160405280156113c05781602001600182028036833780820191505090505b5090505b6000851461144d576001826113d9919061263e565b9150600a856113e8919061286f565b60306113f49190612672565b60f81b81838151811061140a576114096128a0565b5b60200101907effffffffffffffffffffffffffffffffffffffffffffffffffffffffffffff1916908160001a905350600a85611446919061283e565b94506113c4565b8093505050505b919050565b600073ffffffffffffffffffffffffffffffffffffffff168273ffffffffffffffffffffffffffffffffffffffff1614156114c9576040517f08c379a00000000000000000000000000000000000000000000000000000000081526004016114c09061291b565b60405180910390fd5b6114d281610cb1565b15611512576040517f08c379a000000000000000000000000000000000000000000000000000000000815260040161150990612987565b60405180910390fd5b61151e60008383611627565b6001600360008473ffffffffffffffffffffffffffffffffffffffff1673ffffffffffffffffffffffffffffffffffffffff168152602001908152602001600020600082825461156e9190612672565b92505081905550816002600083815260200190815260200160002060006101000a81548173ffffffffffffffffffffffffffffffffffffffff021916908373ffffffffffffffffffffffffffffffffffffffff160217905550808273ffffffffffffffffffffffffffffffffffffffff16600073ffffffffffffffffffffffffffffffffffffffff167fddf252ad1be2c89b69c2b068fc378daa952ba7f163c4a11628f55a4df523b3ef60405160405180910390a45050565b505050565b600061164d8473ffffffffffffffffffffffffffffffffffffffff166117b4565b156117a7578373ffffffffffffffffffffffffffffffffffffffff1663150b7a02611676610d1d565b8786866040518563ffffffff1660e01b815260040161169894939291906129fc565b6020604051808303816000875af19250505080156116d457506040513d601f19601f820116820180604052508101906116d19190612a5d565b60015b611757573d8060008114611704576040519150601f19603f3d011682016040523d82523d6000602084013e611709565b606091505b5060008151141561174f576040517f08c379a0000000000000000000000000000000000000000000000000000000008152600401611746906127a6565b60405180910390fd5b805181602001fd5b63150b7a0260e01b7bffffffffffffffffffffffffffffffffffffffffffffffffffffffff1916817bffffffffffffffffffffffffffffffffffffffffffffffffffffffff1916149150506117ac565b600190505b949350505050565b600080823b905060008111915050919050565b8280546117d390611f46565b90600052602060002090601f0160209004810192826117f5576000855561183c565b82601f1061180e57805160ff191683800117855561183c565b8280016001018555821561183c579182015b8281111561183b578251825591602001919060010190611820565b5b509050611849919061184d565b5090565b5b8082111561186657600081600090555060010161184e565b5090565b6000604051905090565b600080fd5b600080fd5b60007fffffffff0000000000000000000000000000000000000000000000000000000082169050919050565b6118b38161187e565b81146118be57600080fd5b50565b6000813590506118d0816118aa565b92915050565b6000602082840312156118ec576118eb611874565b5b60006118fa848285016118c1565b91505092915050565b60008115159050919050565b61191881611903565b82525050565b6000602082019050611933600083018461190f565b92915050565b600081519050919050565b600082825260208201905092915050565b60005b83811015611973578082015181840152602081019050611958565b83811115611982576000848401525b50505050565b6000601f19601f8301169050919050565b60006119a482611939565b6119ae8185611944565b93506119be818560208601611955565b6119c781611988565b840191505092915050565b600060208201905081810360008301526119ec8184611999565b905092915050565b6000819050919050565b611a07816119f4565b8114611a1257600080fd5b50565b600081359050611a24816119fe565b92915050565b600060208284031215611a4057611a3f611874565b5b6000611a4e84828501611a15565b91505092915050565b600073ffffffffffffffffffffffffffffffffffffffff82169050919050565b6000611a8282611a57565b9050919050565b611a9281611a77565b82525050565b6000602082019050611aad6000830184611a89565b92915050565b611abc81611a77565b8114611ac757600080fd5b50565b600081359050611ad981611ab3565b92915050565b60008060408385031215611af657611af5611874565b5b6000611b0485828601611aca565b9250506020611b1585828601611a15565b9150509250929050565b611b28816119f4565b82525050565b6000602082019050611b436000830184611b1f565b92915050565b600080600060608486031215611b6257611b61611874565b5b6000611b7086828701611aca565b9350506020611b8186828701611aca565b9250506040611b9286828701611a15565b9150509250925092565b600060208284031215611bb257611bb1611874565b5b6000611bc084828501611aca565b91505092915050565b611bd281611903565b8114611bdd57600080fd5b50565b600081359050611bef81611bc9565b92915050565b60008060408385031215611c0c57611c0b611874565b5b6000611c1a85828601611aca565b9250506020611c2b85828601611be0565b9150509250929050565b600080fd5b600080fd5b7f4e487b7100000000000000000000000000000000000000000000000000000000600052604160045260246000fd5b611c7782611988565b810181811067ffffffffffffffff82111715611c9657611c95611c3f565b5b80604052505050565b6000611ca961186a565b9050611cb58282611c6e565b919050565b600067ffffffffffffffff821115611cd557611cd4611c3f565b5b611cde82611988565b9050602081019050919050565b82818337600083830152505050565b6000611d0d611d0884611cba565b611c9f565b905082815260208101848484011115611d2957611d28611c3a565b5b611d34848285611ceb565b509392505050565b600082601f830112611d5157611d50611c35565b5b8135611d61848260208601611cfa565b91505092915050565b60008060008060808587031215611d8457611d83611874565b5b6000611d9287828801611aca565b9450506020611da387828801611aca565b9350506040611db487828801611a15565b925050606085013567ffffffffffffffff811115611dd557611dd4611879565b5b611de187828801611d3c565b91505092959194509250565b600067ffffffffffffffff821115611e0857611e07611c3f565b5b611e1182611988565b9050602081019050919050565b6000611e31611e2c84611ded565b611c9f565b905082815260208101848484011115611e4d57611e4c611c3a565b5b611e58848285611ceb565b509392505050565b600082601f830112611e7557611e74611c35565b5b8135611e85848260208601611e1e565b91505092915050565b600060208284031215611ea457611ea3611874565b5b600082013567ffffffffffffffff811115611ec257611ec1611879565b5b611ece84828501611e60565b91505092915050565b60008060408385031215611eee57611eed611874565b5b6000611efc85828601611aca565b9250506020611f0d85828601611aca565b9150509250929050565b7f4e487b7100000000000000000000000000000000000000000000000000000000600052602260045260246000fd5b60006002820490506001821680611f5e57607f821691505b60208210811415611f7257611f71611f17565b5b50919050565b7f4552433732313a20617070726f76656420717565727920666f72206e6f6e657860008201527f697374656e7420746f6b656e0000000000000000000000000000000000000000602082015250565b6000611fd4602c83611944565b9150611fdf82611f78565b604082019050919050565b6000602082019050818103600083015261200381611fc7565b9050919050565b7f4552433732313a20617070726f76616c20746f2063757272656e74206f776e6560008201527f7200000000000000000000000000000000000000000000000000000000000000602082015250565b6000612066602183611944565b91506120718261200a565b604082019050919050565b6000602082019050818103600083015261209581612059565b9050919050565b7f4552433732313a20617070726f76652063616c6c6572206973206e6f74206f7760008201527f6e6572206e6f7220617070726f76656420666f7220616c6c0000000000000000602082015250565b60006120f8603883611944565b91506121038261209c565b604082019050919050565b60006020820190508181036000830152612127816120eb565b9050919050565b7f4552433732313a207472616e736665722063616c6c6572206973206e6f74206f60008201527f776e6572206e6f7220617070726f766564000000000000000000000000000000602082015250565b600061218a603183611944565b91506121958261212e565b604082019050919050565b600060208201905081810360008301526121b98161217d565b9050919050565b7f4552433732313a206f776e657220717565727920666f72206e6f6e657869737460008201527f656e7420746f6b656e0000000000000000000000000000000000000000000000602082015250565b600061221c602983611944565b9150612227826121c0565b604082019050919050565b6000602082019050818103600083015261224b8161220f565b9050919050565b7f4552433732313a2062616c616e636520717565727920666f7220746865207a6560008201527f726f206164647265737300000000000000000000000000000000000000000000602082015250565b60006122ae602a83611944565b91506122b982612252565b604082019050919050565b600060208201905081810360008301526122dd816122a1565b9050919050565b7f4552433732314d657461646174613a2055524920717565727920666f72206e6f60008201527f6e6578697374656e7420746f6b656e0000000000000000000000000000000000602082015250565b6000612340602f83611944565b915061234b826122e4565b604082019050919050565b6000602082019050818103600083015261236f81612333565b9050919050565b600081905092915050565b600061238c82611939565b6123968185612376565b93506123a6818560208601611955565b80840191505092915050565b60006123be8285612381565b91506123ca8284612381565b91508190509392505050565b60006123e28284612381565b915081905092915050565b7f4572726f722c20636f6c6f7220616c7265616479206578697374730000000000600082015250565b6000612423601b83611944565b915061242e826123ed565b602082019050919050565b6000602082019050818103600083015261245281612416565b9050919050565b7f4552433732313a206f70657261746f7220717565727920666f72206e6f6e657860008201527f697374656e7420746f6b656e0000000000000000000000000000000000000000602082015250565b60006124b5602c83611944565b91506124c082612459565b604082019050919050565b600060208201905081810360008301526124e4816124a8565b9050919050565b7f4552433732313a207472616e73666572206f6620746f6b656e2074686174206960008201527f73206e6f74206f776e0000000000000000000000000000000000000000000000602082015250565b6000612547602983611944565b9150612552826124eb565b604082019050919050565b600060208201905081810360008301526125768161253a565b9050919050565b7f4552433732313a207472616e7366657220746f20746865207a65726f2061646460008201527f7265737300000000000000000000000000000000000000000000000000000000602082015250565b60006125d9602483611944565b91506125e48261257d565b604082019050919050565b60006020820190508181036000830152612608816125cc565b9050919050565b7f4e487b7100000000000000000000000000000000000000000000000000000000600052601160045260246000fd5b6000612649826119f4565b9150612654836119f4565b9250828210156126675761266661260f565b5b828203905092915050565b600061267d826119f4565b9150612688836119f4565b9250827fffffffffffffffffffffffffffffffffffffffffffffffffffffffffffffffff038211156126bd576126bc61260f565b5b828201905092915050565b7f4552433732313a20617070726f766520746f2063616c6c657200000000000000600082015250565b60006126fe601983611944565b9150612709826126c8565b602082019050919050565b6000602082019050818103600083015261272d816126f1565b9050919050565b7f4552433732313a207472616e7366657220746f206e6f6e20455243373231526560008201527f63656976657220696d706c656d656e7465720000000000000000000000000000602082015250565b6000612790603283611944565b915061279b82612734565b604082019050919050565b600060208201905081810360008301526127bf81612783565b9050919050565b60006127d1826119f4565b91507fffffffffffffffffffffffffffffffffffffffffffffffffffffffffffffffff8214156128045761280361260f565b5b600182019050919050565b7f4e487b7100000000000000000000000000000000000000000000000000000000600052601260045260246000fd5b6000612849826119f4565b9150612854836119f4565b9250826128645761286361280f565b5b828204905092915050565b600061287a826119f4565b9150612885836119f4565b9250826128955761289461280f565b5b828206905092915050565b7f4e487b7100000000000000000000000000000000000000000000000000000000600052603260045260246000fd5b7f4552433732313a206d696e7420746f20746865207a65726f2061646472657373600082015250565b6000612905602083611944565b9150612910826128cf565b602082019050919050565b60006020820190508181036000830152612934816128f8565b9050919050565b7f4552433732313a20746f6b656e20616c7265616479206d696e74656400000000600082015250565b6000612971601c83611944565b915061297c8261293b565b602082019050919050565b600060208201905081810360008301526129a081612964565b9050919050565b600081519050919050565b600082825260208201905092915050565b60006129ce826129a7565b6129d881856129b2565b93506129e8818560208601611955565b6129f181611988565b840191505092915050565b6000608082019050612a116000830187611a89565b612a1e6020830186611a89565b612a2b6040830185611b1f565b8181036060830152612a3d81846129c3565b905095945050505050565b600081519050612a57816118aa565b92915050565b600060208284031215612a7357612a72611874565b5b6000612a8184828501612a48565b9150509291505056fea26469706673582212205cead2a29acdde3167fbf58f7e4b05fa65e1c883ab172ff7a1ff69228a7b5f5264736f6c634300080b0033",
  "immutableReferences": {},
  "source": "// SPDX-License-Identifier: MIT\npragma solidity >0.8.0;\n\nimport \"@openzeppelin/contracts/token/ERC721/ERC721.sol\";\n\ncontract Color is ERC721 {\n    string[] public colors;\n    mapping(string => bool) colorExists;\n\n    constructor() ERC721(\"0xFriends\", \"0XF\") {}\n\n    function mint(string memory _color) public {\n        require(!colorExists[_color],\"Error, color already exists\");\n\n        colors.push(_color);\n        uint256 _id = colors.length;\n\n        _mint(msg.sender, _id);\n\n        colorExists[_color] = true;\n    }\n\n    function totalSupply() public view returns (uint256) {\n        return colors.length;\n    }\n}\n",
  "sourcePath": "/Users/jorgeandres/Documents/workspace/blockchain/collectable/src/contracts/Color.sol",
  "compiler": {
    "name": "solc",
    "version": "0.8.11+commit.d7f03943.Emscripten.clang"
  },
  "schemaVersion": "3.4.4",
  "updatedAt": "2022-01-29T14:09:01.785Z",
  "networkType": "ethereum",
  "devdoc": {
    "kind": "dev",
    "methods": {
      "approve(address,uint256)": {
        "details": "See {IERC721-approve}."
      },
      "balanceOf(address)": {
        "details": "See {IERC721-balanceOf}."
      },
      "getApproved(uint256)": {
        "details": "See {IERC721-getApproved}."
      },
      "isApprovedForAll(address,address)": {
        "details": "See {IERC721-isApprovedForAll}."
      },
      "name()": {
        "details": "See {IERC721Metadata-name}."
      },
      "ownerOf(uint256)": {
        "details": "See {IERC721-ownerOf}."
      },
      "safeTransferFrom(address,address,uint256)": {
        "details": "See {IERC721-safeTransferFrom}."
      },
      "safeTransferFrom(address,address,uint256,bytes)": {
        "details": "See {IERC721-safeTransferFrom}."
      },
      "setApprovalForAll(address,bool)": {
        "details": "See {IERC721-setApprovalForAll}."
      },
      "supportsInterface(bytes4)": {
        "details": "See {IERC165-supportsInterface}."
      },
      "symbol()": {
        "details": "See {IERC721Metadata-symbol}."
      },
      "tokenURI(uint256)": {
        "details": "See {IERC721Metadata-tokenURI}."
      },
      "transferFrom(address,address,uint256)": {
        "details": "See {IERC721-transferFrom}."
      }
    },
    "version": 1
  },
  "userdoc": {
    "kind": "user",
    "methods": {},
    "version": 1
  }
}